{
  "contractName": "Diamond",
  "abi": [
    {
      "inputs": [
        {
          "internalType": "address",
          "name": "_usdc",
          "type": "address"
        },
        {
          "internalType": "address",
          "name": "_treasuryAddress",
          "type": "address"
        }
      ],
      "stateMutability": "nonpayable",
      "type": "constructor"
    },
    {
      "anonymous": false,
      "inputs": [
        {
          "indexed": true,
          "internalType": "address",
          "name": "owner",
          "type": "address"
        },
        {
          "indexed": true,
          "internalType": "address",
          "name": "spender",
          "type": "address"
        },
        {
          "indexed": false,
          "internalType": "uint256",
          "name": "value",
          "type": "uint256"
        }
      ],
      "name": "Approval",
      "type": "event"
    },
    {
      "anonymous": false,
      "inputs": [
        {
          "indexed": true,
          "internalType": "address",
          "name": "delegator",
          "type": "address"
        },
        {
          "indexed": true,
          "internalType": "address",
          "name": "fromDelegate",
          "type": "address"
        },
        {
          "indexed": true,
          "internalType": "address",
          "name": "toDelegate",
          "type": "address"
        }
      ],
      "name": "DelegateChanged",
      "type": "event"
    },
    {
      "anonymous": false,
      "inputs": [
        {
          "indexed": true,
          "internalType": "address",
          "name": "delegate",
          "type": "address"
        },
        {
          "indexed": false,
          "internalType": "uint256",
          "name": "previousBalance",
          "type": "uint256"
        },
        {
          "indexed": false,
          "internalType": "uint256",
          "name": "newBalance",
          "type": "uint256"
        }
      ],
      "name": "DelegateVotesChanged",
      "type": "event"
    },
    {
      "anonymous": false,
      "inputs": [
        {
          "indexed": true,
          "internalType": "address",
          "name": "previousOwner",
          "type": "address"
        },
        {
          "indexed": true,
          "internalType": "address",
          "name": "newOwner",
          "type": "address"
        }
      ],
      "name": "OwnershipTransferred",
      "type": "event"
    },
    {
      "anonymous": false,
      "inputs": [
        {
          "indexed": true,
          "internalType": "address",
          "name": "from",
          "type": "address"
        },
        {
          "indexed": true,
          "internalType": "address",
          "name": "to",
          "type": "address"
        },
        {
          "indexed": false,
          "internalType": "uint256",
          "name": "value",
          "type": "uint256"
        }
      ],
      "name": "Transfer",
      "type": "event"
    },
    {
      "inputs": [],
      "name": "DOMAIN_SEPARATOR",
      "outputs": [
        {
          "internalType": "bytes32",
          "name": "",
          "type": "bytes32"
        }
      ],
      "stateMutability": "view",
      "type": "function",
      "constant": true
    },
    {
      "inputs": [],
      "name": "Earning",
      "outputs": [
        {
          "internalType": "uint256",
          "name": "",
          "type": "uint256"
        }
      ],
      "stateMutability": "view",
      "type": "function",
      "constant": true
    },
    {
      "inputs": [],
      "name": "USDC",
      "outputs": [
        {
          "internalType": "contract IERC20",
          "name": "",
          "type": "address"
        }
      ],
      "stateMutability": "view",
      "type": "function",
      "constant": true
    },
    {
      "inputs": [],
      "name": "ad1",
      "outputs": [
        {
          "internalType": "uint256",
          "name": "",
          "type": "uint256"
        }
      ],
      "stateMutability": "view",
      "type": "function",
      "constant": true
    },
    {
      "inputs": [
        {
          "internalType": "address",
          "name": "owner",
          "type": "address"
        },
        {
          "internalType": "address",
          "name": "spender",
          "type": "address"
        }
      ],
      "name": "allowance",
      "outputs": [
        {
          "internalType": "uint256",
          "name": "",
          "type": "uint256"
        }
      ],
      "stateMutability": "view",
      "type": "function",
      "constant": true
    },
    {
      "inputs": [
        {
          "internalType": "address",
          "name": "spender",
          "type": "address"
        },
        {
          "internalType": "uint256",
          "name": "amount",
          "type": "uint256"
        }
      ],
      "name": "approve",
      "outputs": [
        {
          "internalType": "bool",
          "name": "",
          "type": "bool"
        }
      ],
      "stateMutability": "nonpayable",
      "type": "function"
    },
    {
      "inputs": [
        {
          "internalType": "address",
          "name": "account",
          "type": "address"
        }
      ],
      "name": "balanceOf",
      "outputs": [
        {
          "internalType": "uint256",
          "name": "",
          "type": "uint256"
        }
      ],
      "stateMutability": "view",
      "type": "function",
      "constant": true
    },
    {
      "inputs": [],
      "name": "buyPercent",
      "outputs": [
        {
          "internalType": "uint256",
          "name": "",
          "type": "uint256"
        }
      ],
      "stateMutability": "view",
      "type": "function",
      "constant": true
    },
    {
      "inputs": [
        {
          "internalType": "address",
          "name": "account",
          "type": "address"
        },
        {
          "internalType": "uint32",
          "name": "pos",
          "type": "uint32"
        }
      ],
      "name": "checkpoints",
      "outputs": [
        {
          "components": [
            {
              "internalType": "uint32",
              "name": "fromBlock",
              "type": "uint32"
            },
            {
              "internalType": "uint224",
              "name": "votes",
              "type": "uint224"
            }
          ],
          "internalType": "struct ERC20Votes.Checkpoint",
          "name": "",
          "type": "tuple"
        }
      ],
      "stateMutability": "view",
      "type": "function",
      "constant": true
    },
    {
      "inputs": [
        {
          "internalType": "address",
          "name": "spender",
          "type": "address"
        },
        {
          "internalType": "uint256",
          "name": "subtractedValue",
          "type": "uint256"
        }
      ],
      "name": "decreaseAllowance",
      "outputs": [
        {
          "internalType": "bool",
          "name": "",
          "type": "bool"
        }
      ],
      "stateMutability": "nonpayable",
      "type": "function"
    },
    {
      "inputs": [
        {
          "internalType": "address",
          "name": "delegatee",
          "type": "address"
        }
      ],
      "name": "delegate",
      "outputs": [],
      "stateMutability": "nonpayable",
      "type": "function"
    },
    {
      "inputs": [
        {
          "internalType": "address",
          "name": "delegatee",
          "type": "address"
        },
        {
          "internalType": "uint256",
          "name": "nonce",
          "type": "uint256"
        },
        {
          "internalType": "uint256",
          "name": "expiry",
          "type": "uint256"
        },
        {
          "internalType": "uint8",
          "name": "v",
          "type": "uint8"
        },
        {
          "internalType": "bytes32",
          "name": "r",
          "type": "bytes32"
        },
        {
          "internalType": "bytes32",
          "name": "s",
          "type": "bytes32"
        }
      ],
      "name": "delegateBySig",
      "outputs": [],
      "stateMutability": "nonpayable",
      "type": "function"
    },
    {
      "inputs": [
        {
          "internalType": "address",
          "name": "account",
          "type": "address"
        }
      ],
      "name": "delegates",
      "outputs": [
        {
          "internalType": "address",
          "name": "",
          "type": "address"
        }
      ],
      "stateMutability": "view",
      "type": "function",
      "constant": true
    },
    {
      "inputs": [
        {
          "internalType": "uint256",
          "name": "blockNumber",
          "type": "uint256"
        }
      ],
      "name": "getPastTotalSupply",
      "outputs": [
        {
          "internalType": "uint256",
          "name": "",
          "type": "uint256"
        }
      ],
      "stateMutability": "view",
      "type": "function",
      "constant": true
    },
    {
      "inputs": [
        {
          "internalType": "address",
          "name": "account",
          "type": "address"
        },
        {
          "internalType": "uint256",
          "name": "blockNumber",
          "type": "uint256"
        }
      ],
      "name": "getPastVotes",
      "outputs": [
        {
          "internalType": "uint256",
          "name": "",
          "type": "uint256"
        }
      ],
      "stateMutability": "view",
      "type": "function",
      "constant": true
    },
    {
      "inputs": [
        {
          "internalType": "address",
          "name": "account",
          "type": "address"
        }
      ],
      "name": "getVotes",
      "outputs": [
        {
          "internalType": "uint256",
          "name": "",
          "type": "uint256"
        }
      ],
      "stateMutability": "view",
      "type": "function",
      "constant": true
    },
    {
      "inputs": [],
      "name": "incPercent",
      "outputs": [
        {
          "internalType": "uint256",
          "name": "",
          "type": "uint256"
        }
      ],
      "stateMutability": "view",
      "type": "function",
      "constant": true
    },
    {
      "inputs": [
        {
          "internalType": "address",
          "name": "spender",
          "type": "address"
        },
        {
          "internalType": "uint256",
          "name": "addedValue",
          "type": "uint256"
        }
      ],
      "name": "increaseAllowance",
      "outputs": [
        {
          "internalType": "bool",
          "name": "",
          "type": "bool"
        }
      ],
      "stateMutability": "nonpayable",
      "type": "function"
    },
    {
      "inputs": [],
      "name": "name",
      "outputs": [
        {
          "internalType": "string",
          "name": "",
          "type": "string"
        }
      ],
      "stateMutability": "view",
      "type": "function",
      "constant": true
    },
    {
      "inputs": [
        {
          "internalType": "address",
          "name": "owner",
          "type": "address"
        }
      ],
      "name": "nonces",
      "outputs": [
        {
          "internalType": "uint256",
          "name": "",
          "type": "uint256"
        }
      ],
      "stateMutability": "view",
      "type": "function",
      "constant": true
    },
    {
      "inputs": [
        {
          "internalType": "address",
          "name": "account",
          "type": "address"
        }
      ],
      "name": "numCheckpoints",
      "outputs": [
        {
          "internalType": "uint32",
          "name": "",
          "type": "uint32"
        }
      ],
      "stateMutability": "view",
      "type": "function",
      "constant": true
    },
    {
      "inputs": [],
      "name": "owner",
      "outputs": [
        {
          "internalType": "address",
          "name": "",
          "type": "address"
        }
      ],
      "stateMutability": "view",
      "type": "function",
      "constant": true
    },
    {
      "inputs": [
        {
          "internalType": "address",
          "name": "owner",
          "type": "address"
        },
        {
          "internalType": "address",
          "name": "spender",
          "type": "address"
        },
        {
          "internalType": "uint256",
          "name": "value",
          "type": "uint256"
        },
        {
          "internalType": "uint256",
          "name": "deadline",
          "type": "uint256"
        },
        {
          "internalType": "uint8",
          "name": "v",
          "type": "uint8"
        },
        {
          "internalType": "bytes32",
          "name": "r",
          "type": "bytes32"
        },
        {
          "internalType": "bytes32",
          "name": "s",
          "type": "bytes32"
        }
      ],
      "name": "permit",
      "outputs": [],
      "stateMutability": "nonpayable",
      "type": "function"
    },
    {
      "inputs": [],
      "name": "poolPercent",
      "outputs": [
        {
          "internalType": "uint256",
          "name": "",
          "type": "uint256"
        }
      ],
      "stateMutability": "view",
      "type": "function",
      "constant": true
    },
    {
      "inputs": [],
      "name": "price",
      "outputs": [
        {
          "internalType": "uint256",
          "name": "",
          "type": "uint256"
        }
      ],
      "stateMutability": "view",
      "type": "function",
      "constant": true
    },
    {
      "inputs": [],
      "name": "referralPercent",
      "outputs": [
        {
          "internalType": "uint256",
          "name": "",
          "type": "uint256"
        }
      ],
      "stateMutability": "view",
      "type": "function",
      "constant": true
    },
    {
      "inputs": [],
      "name": "renounceOwnership",
      "outputs": [],
      "stateMutability": "nonpayable",
      "type": "function"
    },
    {
      "inputs": [],
      "name": "stableDec",
      "outputs": [
        {
          "internalType": "uint256",
          "name": "",
          "type": "uint256"
        }
      ],
      "stateMutability": "view",
      "type": "function",
      "constant": true
    },
    {
      "inputs": [],
      "name": "symbol",
      "outputs": [
        {
          "internalType": "string",
          "name": "",
          "type": "string"
        }
      ],
      "stateMutability": "view",
      "type": "function",
      "constant": true
    },
    {
      "inputs": [],
      "name": "totalSupply",
      "outputs": [
        {
          "internalType": "uint256",
          "name": "",
          "type": "uint256"
        }
      ],
      "stateMutability": "view",
      "type": "function",
      "constant": true
    },
    {
      "inputs": [
        {
          "internalType": "address",
          "name": "to",
          "type": "address"
        },
        {
          "internalType": "uint256",
          "name": "amount",
          "type": "uint256"
        }
      ],
      "name": "transfer",
      "outputs": [
        {
          "internalType": "bool",
          "name": "",
          "type": "bool"
        }
      ],
      "stateMutability": "nonpayable",
      "type": "function"
    },
    {
      "inputs": [
        {
          "internalType": "address",
          "name": "from",
          "type": "address"
        },
        {
          "internalType": "address",
          "name": "to",
          "type": "address"
        },
        {
          "internalType": "uint256",
          "name": "amount",
          "type": "uint256"
        }
      ],
      "name": "transferFrom",
      "outputs": [
        {
          "internalType": "bool",
          "name": "",
          "type": "bool"
        }
      ],
      "stateMutability": "nonpayable",
      "type": "function"
    },
    {
      "inputs": [
        {
          "internalType": "address",
          "name": "newOwner",
          "type": "address"
        }
      ],
      "name": "transferOwnership",
      "outputs": [],
      "stateMutability": "nonpayable",
      "type": "function"
    },
    {
      "inputs": [],
      "name": "treasuryAddress",
      "outputs": [
        {
          "internalType": "address",
          "name": "",
          "type": "address"
        }
      ],
      "stateMutability": "view",
      "type": "function",
      "constant": true
    },
    {
      "inputs": [],
      "name": "treasuryPercent",
      "outputs": [
        {
          "internalType": "uint256",
          "name": "",
          "type": "uint256"
        }
      ],
      "stateMutability": "view",
      "type": "function",
      "constant": true
    },
    {
      "inputs": [
        {
          "internalType": "address",
          "name": "to",
          "type": "address"
        },
        {
          "internalType": "uint256",
          "name": "amount",
          "type": "uint256"
        }
      ],
      "name": "mintInternal",
      "outputs": [],
      "stateMutability": "nonpayable",
      "type": "function"
    },
    {
      "inputs": [],
      "name": "decimals",
      "outputs": [
        {
          "internalType": "uint8",
          "name": "",
          "type": "uint8"
        }
      ],
      "stateMutability": "view",
      "type": "function",
      "constant": true
    },
    {
      "inputs": [
        {
          "internalType": "address",
          "name": "_treasuryAddress",
          "type": "address"
        }
      ],
      "name": "changeTreasury",
      "outputs": [],
      "stateMutability": "nonpayable",
      "type": "function"
    },
    {
      "inputs": [
        {
          "internalType": "uint256",
          "name": "_amount",
          "type": "uint256"
        },
        {
          "internalType": "address",
          "name": "_referer",
          "type": "address"
        }
      ],
      "name": "buy",
      "outputs": [],
      "stateMutability": "nonpayable",
      "type": "function"
    },
    {
      "inputs": [
        {
          "internalType": "uint256",
          "name": "_amount",
          "type": "uint256"
        }
      ],
      "name": "sell",
      "outputs": [],
      "stateMutability": "nonpayable",
      "type": "function"
    },
    {
      "inputs": [],
      "name": "USDCPoolBalance",
      "outputs": [
        {
          "internalType": "uint256",
          "name": "",
          "type": "uint256"
        }
      ],
      "stateMutability": "view",
      "type": "function",
      "constant": true
    },
    {
      "inputs": [
        {
          "internalType": "contract IERC20",
          "name": "token",
          "type": "address"
        },
        {
          "internalType": "address",
          "name": "to",
          "type": "address"
        },
        {
          "internalType": "uint256",
          "name": "amount",
          "type": "uint256"
        }
      ],
      "name": "transferERC20",
      "outputs": [],
      "stateMutability": "payable",
      "type": "function",
      "payable": true
    }
  ],
  "bytecode": "0x610140604052620f4240600c556000600d556000600e556001600f556000601155600060125560656013556064601455600660155560006017553480156200004657600080fd5b50604051620063bf380380620063bf83398181016040528101906200006c9190620004b2565b6040518060400160405280600781526020017f4469616d6f6e6400000000000000000000000000000000000000000000000000815250806040518060400160405280600181526020017f31000000000000000000000000000000000000000000000000000000000000008152506040518060400160405280600781526020017f4469616d6f6e64000000000000000000000000000000000000000000000000008152506040518060400160405280600381526020017f444941000000000000000000000000000000000000000000000000000000000081525081600390805190602001906200015d929190620003eb565b50806004908051906020019062000176929190620003eb565b505050620001996200018d620002e160201b60201c565b620002e960201b60201c565b600160068190555060008280519060200120905060008280519060200120905060007f8b73c3c69bb8fe3d512ecc4cf759cc79239f7b179b0ffacaa9a75d522b39400f90508260e081815250508161010081815250504660a081815250506200020a818484620003af60201b60201c565b608081815250503073ffffffffffffffffffffffffffffffffffffffff1660c08173ffffffffffffffffffffffffffffffffffffffff1660601b8152505080610120818152505050505050505081601660006101000a81548173ffffffffffffffffffffffffffffffffffffffff021916908373ffffffffffffffffffffffffffffffffffffffff16021790555080601060006101000a81548173ffffffffffffffffffffffffffffffffffffffff021916908373ffffffffffffffffffffffffffffffffffffffff160217905550505062000655565b600033905090565b6000600560009054906101000a900473ffffffffffffffffffffffffffffffffffffffff16905081600560006101000a81548173ffffffffffffffffffffffffffffffffffffffff021916908373ffffffffffffffffffffffffffffffffffffffff1602179055508173ffffffffffffffffffffffffffffffffffffffff168173ffffffffffffffffffffffffffffffffffffffff167f8be0079c531659141344cd1fd0a4f28419497f9722a3daafe3b4186f6b6457e060405160405180910390a35050565b60008383834630604051602001620003cc9594939291906200052c565b6040516020818303038152906040528051906020012090509392505050565b828054620003f990620005d1565b90600052602060002090601f0160209004810192826200041d576000855562000469565b82601f106200043857805160ff191683800117855562000469565b8280016001018555821562000469579182015b82811115620004685782518255916020019190600101906200044b565b5b5090506200047891906200047c565b5090565b5b80821115620004975760008160009055506001016200047d565b5090565b600081519050620004ac816200063b565b92915050565b60008060408385031215620004cc57620004cb62000636565b5b6000620004dc858286016200049b565b9250506020620004ef858286016200049b565b9150509250929050565b620005048162000589565b82525050565b62000515816200059d565b82525050565b6200052681620005c7565b82525050565b600060a0820190506200054360008301886200050a565b6200055260208301876200050a565b6200056160408301866200050a565b6200057060608301856200051b565b6200057f6080830184620004f9565b9695505050505050565b60006200059682620005a7565b9050919050565b6000819050919050565b600073ffffffffffffffffffffffffffffffffffffffff82169050919050565b6000819050919050565b60006002820490506001821680620005ea57607f821691505b6020821081141562000601576200060062000607565b5b50919050565b7f4e487b7100000000000000000000000000000000000000000000000000000000600052602260045260246000fd5b600080fd5b620006468162000589565b81146200065257600080fd5b50565b60805160a05160c05160601c60e0516101005161012051615d17620006a8600039600061247b015260006124bd0152600061249c015260006123d101526000612427015260006124500152615d176000f3fe6080604052600436106102515760003560e01c80637ecebe0011610139578063ab43f8cd116100b6578063d505accf1161007a578063d505accf1461090d578063dd62ed3e14610936578063de6cb60a14610973578063e4849b321461099e578063f1127ed8146109c7578063f2fde38b14610a0457610251565b8063ab43f8cd1461083c578063b14f2a3914610867578063c3cda52014610890578063c5f956af146108b9578063d4d92b14146108e457610251565b80639ab24eb0116100fd5780639ab24eb01461073e5780639db5dbe41461077b578063a035b1fe14610797578063a457c2d7146107c2578063a9059cbb146107ff57610251565b80637ecebe001461064357806389a30271146106805780638da5cb5b146106ab5780638e539e8c146106d657806395d89b411461071357610251565b80633644e515116101d2578063587cde1e11610196578063587cde1e146105235780635c19a95c146105605780636fcfff451461058957806370a08231146105c6578063715018a6146106035780637deb60251461061a57610251565b80633644e5151461042857806337f2e47014610453578063395093511461047e5780633a46b1a8146104bb5780634f1455c9146104f857610251565b806323b872dd1161021957806323b872dd1461033f578063247ed3a21461037c578063313ce567146103a757806332aae541146103d2578063343dfb7e146103fd57610251565b806304ef9d581461025657806306fdde0314610281578063095ea7b3146102ac57806318160ddd146102e95780631dcf94fc14610314575b600080fd5b34801561026257600080fd5b5061026b610a2d565b6040516102789190614f79565b60405180910390f35b34801561028d57600080fd5b50610296610a33565b6040516102a39190614b9c565b60405180910390f35b3480156102b857600080fd5b506102d360048036038101906102ce91906141cc565b610ac5565b6040516102e09190614a0d565b60405180910390f35b3480156102f557600080fd5b506102fe610ae8565b60405161030b9190614f79565b60405180910390f35b34801561032057600080fd5b50610329610af2565b6040516103369190614f79565b60405180910390f35b34801561034b57600080fd5b50610366600480360381019061036191906140d7565b610af8565b6040516103739190614a0d565b60405180910390f35b34801561038857600080fd5b50610391610b27565b60405161039e9190614f79565b60405180910390f35b3480156103b357600080fd5b506103bc610b2d565b6040516103c99190614fd8565b60405180910390f35b3480156103de57600080fd5b506103e7610b36565b6040516103f49190614f79565b60405180910390f35b34801561040957600080fd5b50610412610b3c565b60405161041f9190614f79565b60405180910390f35b34801561043457600080fd5b5061043d610b42565b60405161044a9190614a28565b60405180910390f35b34801561045f57600080fd5b50610468610b51565b6040516104759190614f79565b60405180910390f35b34801561048a57600080fd5b506104a560048036038101906104a091906141cc565b610c03565b6040516104b29190614a0d565b60405180910390f35b3480156104c757600080fd5b506104e260048036038101906104dd91906141cc565b610c3a565b6040516104ef9190614f79565b60405180910390f35b34801561050457600080fd5b5061050d610cce565b60405161051a9190614f79565b60405180910390f35b34801561052f57600080fd5b5061054a6004803603810190610545919061406a565b610cd4565b6040516105579190614992565b60405180910390f35b34801561056c57600080fd5b506105876004803603810190610582919061406a565b610d3d565b005b34801561059557600080fd5b506105b060048036038101906105ab919061406a565b610d51565b6040516105bd9190614fbd565b60405180910390f35b3480156105d257600080fd5b506105ed60048036038101906105e8919061406a565b610da5565b6040516105fa9190614f79565b60405180910390f35b34801561060f57600080fd5b50610618610ded565b005b34801561062657600080fd5b50610641600480360381019061063c91906143b3565b610e01565b005b34801561064f57600080fd5b5061066a6004803603810190610665919061406a565b611280565b6040516106779190614f79565b60405180910390f35b34801561068c57600080fd5b506106956112d0565b6040516106a29190614b81565b60405180910390f35b3480156106b757600080fd5b506106c06112f6565b6040516106cd9190614992565b60405180910390f35b3480156106e257600080fd5b506106fd60048036038101906106f89190614359565b611320565b60405161070a9190614f79565b60405180910390f35b34801561071f57600080fd5b50610728611376565b6040516107359190614b9c565b60405180910390f35b34801561074a57600080fd5b506107656004803603810190610760919061406a565b611408565b6040516107729190614f79565b60405180910390f35b61079560048036038101906107909190614306565b611519565b005b3480156107a357600080fd5b506107ac6116f2565b6040516107b99190614f79565b60405180910390f35b3480156107ce57600080fd5b506107e960048036038101906107e491906141cc565b6116f8565b6040516107f69190614a0d565b60405180910390f35b34801561080b57600080fd5b50610826600480360381019061082191906141cc565b61176f565b6040516108339190614a0d565b60405180910390f35b34801561084857600080fd5b50610851611792565b60405161085e9190614f79565b60405180910390f35b34801561087357600080fd5b5061088e6004803603810190610889919061406a565b611798565b005b34801561089c57600080fd5b506108b760048036038101906108b2919061420c565b6117e4565b005b3480156108c557600080fd5b506108ce6118e8565b6040516108db9190614992565b60405180910390f35b3480156108f057600080fd5b5061090b600480360381019061090691906141cc565b61190e565b005b34801561091957600080fd5b50610934600480360381019061092f919061412a565b611924565b005b34801561094257600080fd5b5061095d60048036038101906109589190614097565b611a66565b60405161096a9190614f79565b60405180910390f35b34801561097f57600080fd5b50610988611aed565b6040516109959190614f79565b60405180910390f35b3480156109aa57600080fd5b506109c560048036038101906109c09190614359565b611af3565b005b3480156109d357600080fd5b506109ee60048036038101906109e99190614299565b611d62565b6040516109fb9190614f5e565b60405180910390f35b348015610a1057600080fd5b50610a2b6004803603810190610a26919061406a565b611e72565b005b600f5481565b606060038054610a42906153c8565b80601f0160208091040260200160405190810160405280929190818152602001828054610a6e906153c8565b8015610abb5780601f10610a9057610100808354040283529160200191610abb565b820191906000526020600020905b815481529060010190602001808311610a9e57829003601f168201915b5050505050905090565b600080610ad0611ef6565b9050610add818585611efe565b600191505092915050565b6000600254905090565b600e5481565b600080610b03611ef6565b9050610b108582856120c9565b610b1b858585612155565b60019150509392505050565b600d5481565b60006006905090565b60155481565b60125481565b6000610b4c6123cd565b905090565b6000601660009054906101000a900473ffffffffffffffffffffffffffffffffffffffff1673ffffffffffffffffffffffffffffffffffffffff166370a08231306040518263ffffffff1660e01b8152600401610bae9190614992565b60206040518083038186803b158015610bc657600080fd5b505afa158015610bda573d6000803e3d6000fd5b505050506040513d601f19601f82011682018060405250810190610bfe9190614386565b905090565b600080610c0e611ef6565b9050610c2f818585610c208589611a66565b610c2a9190615030565b611efe565b600191505092915050565b6000438210610c7e576040517f08c379a0000000000000000000000000000000000000000000000000000000008152600401610c7590614bfe565b60405180910390fd5b610cc6600a60008573ffffffffffffffffffffffffffffffffffffffff1673ffffffffffffffffffffffffffffffffffffffff168152602001908152602001600020836124e7565b905092915050565b60115481565b6000600960008373ffffffffffffffffffffffffffffffffffffffff1673ffffffffffffffffffffffffffffffffffffffff16815260200190815260200160002060009054906101000a900473ffffffffffffffffffffffffffffffffffffffff169050919050565b610d4e610d48611ef6565b82612638565b50565b6000610d9e600a60008473ffffffffffffffffffffffffffffffffffffffff1673ffffffffffffffffffffffffffffffffffffffff16815260200190815260200160002080549050612752565b9050919050565b60008060008373ffffffffffffffffffffffffffffffffffffffff1673ffffffffffffffffffffffffffffffffffffffff168152602001908152602001600020549050919050565b610df56127a5565b610dff6000612823565b565b610e096128e9565b6000806000610e37601454610e296013548861293990919063ffffffff16565b61294f90919063ffffffff16565b90506000610e70601554600a610e4d919061510a565b610e62600c548561293990919063ffffffff16565b61294f90919063ffffffff16565b90506000610ea9601554600a610e86919061510a565b610e9b600c548a61293990919063ffffffff16565b61294f90919063ffffffff16565b90506000610ec0828461296590919063ffffffff16565b90506000610eed601454610edf600f548561293990919063ffffffff16565b61294f90919063ffffffff16565b90506000610f1a601454610f0c600d548661293990919063ffffffff16565b61294f90919063ffffffff16565b9050600073ffffffffffffffffffffffffffffffffffffffff168973ffffffffffffffffffffffffffffffffffffffff1614611126576000610f7b601454610f6d6012548661293990919063ffffffff16565b61294f90919063ffffffff16565b9050610fcc333087601660009054906101000a900473ffffffffffffffffffffffffffffffffffffffff1673ffffffffffffffffffffffffffffffffffffffff1661297b909392919063ffffffff16565b61101b333084601660009054906101000a900473ffffffffffffffffffffffffffffffffffffffff1673ffffffffffffffffffffffffffffffffffffffff1661297b909392919063ffffffff16565b81985061103382600e54612a0490919063ffffffff16565b600e81905550611088338b83601660009054906101000a900473ffffffffffffffffffffffffffffffffffffffff1673ffffffffffffffffffffffffffffffffffffffff1661297b909392919063ffffffff16565b61110b33601060009054906101000a900473ffffffffffffffffffffffffffffffffffffffff166110c2848761296590919063ffffffff16565b601660009054906101000a900473ffffffffffffffffffffffffffffffffffffffff1673ffffffffffffffffffffffffffffffffffffffff1661297b909392919063ffffffff16565b61111e818461296590919063ffffffff16565b975050611257565b611175333086601660009054906101000a900473ffffffffffffffffffffffffffffffffffffffff1673ffffffffffffffffffffffffffffffffffffffff1661297b909392919063ffffffff16565b6111c4333083601660009054906101000a900473ffffffffffffffffffffffffffffffffffffffff1673ffffffffffffffffffffffffffffffffffffffff1661297b909392919063ffffffff16565b8097506111dc81600e54612a0490919063ffffffff16565b600e8190555061125333601060009054906101000a900473ffffffffffffffffffffffffffffffffffffffff1684601660009054906101000a900473ffffffffffffffffffffffffffffffffffffffff1673ffffffffffffffffffffffffffffffffffffffff1661297b909392919063ffffffff16565b8196505b611262888689612a1a565b61126c338b612b4d565b505050505050505061127c612b5b565b5050565b60006112c9600760008473ffffffffffffffffffffffffffffffffffffffff1673ffffffffffffffffffffffffffffffffffffffff168152602001908152602001600020612b65565b9050919050565b601660009054906101000a900473ffffffffffffffffffffffffffffffffffffffff1681565b6000600560009054906101000a900473ffffffffffffffffffffffffffffffffffffffff16905090565b6000438210611364576040517f08c379a000000000000000000000000000000000000000000000000000000000815260040161135b90614bfe565b60405180910390fd5b61136f600b836124e7565b9050919050565b606060048054611385906153c8565b80601f01602080910402602001604051908101604052809291908181526020018280546113b1906153c8565b80156113fe5780601f106113d3576101008083540402835291602001916113fe565b820191906000526020600020905b8154815290600101906020018083116113e157829003601f168201915b5050505050905090565b600080600a60008473ffffffffffffffffffffffffffffffffffffffff1673ffffffffffffffffffffffffffffffffffffffff168152602001908152602001600020805490509050600081146114f057600a60008473ffffffffffffffffffffffffffffffffffffffff1673ffffffffffffffffffffffffffffffffffffffff1681526020019081526020016000206001826114a49190615282565b815481106114b5576114b46154c0565b5b9060005260206000200160000160049054906101000a90047bffffffffffffffffffffffffffffffffffffffffffffffffffffffff166114f3565b60005b7bffffffffffffffffffffffffffffffffffffffffffffffffffffffff16915050919050565b6115216112f6565b73ffffffffffffffffffffffffffffffffffffffff163373ffffffffffffffffffffffffffffffffffffffff161461158e576040517f08c379a000000000000000000000000000000000000000000000000000000000815260040161158590614f1e565b60405180910390fd5b60008373ffffffffffffffffffffffffffffffffffffffff166370a08231306040518263ffffffff1660e01b81526004016115c99190614992565b60206040518083038186803b1580156115e157600080fd5b505afa1580156115f5573d6000803e3d6000fd5b505050506040513d601f19601f820116820180604052508101906116199190614386565b90508082111561165e576040517f08c379a000000000000000000000000000000000000000000000000000000000815260040161165590614c1e565b60405180910390fd5b8373ffffffffffffffffffffffffffffffffffffffff1663a9059cbb84846040518363ffffffff1660e01b81526004016116999291906149e4565b602060405180830381600087803b1580156116b357600080fd5b505af11580156116c7573d6000803e3d6000fd5b505050506040513d601f19601f820116820180604052508101906116eb91906142d9565b5050505050565b600c5481565b600080611703611ef6565b905060006117118286611a66565b905083811015611756576040517f08c379a000000000000000000000000000000000000000000000000000000000815260040161174d90614efe565b60405180910390fd5b6117638286868403611efe565b60019250505092915050565b60008061177a611ef6565b9050611787818585612155565b600191505092915050565b60175481565b6117a06127a5565b80601060006101000a81548173ffffffffffffffffffffffffffffffffffffffff021916908373ffffffffffffffffffffffffffffffffffffffff16021790555050565b83421115611827576040517f08c379a000000000000000000000000000000000000000000000000000000000815260040161181e90614c3e565b60405180910390fd5b60006118896118817fe48329057bfd03d55e49b547132e39cffd9c1820ad7b9d4c5307691425d15adf8989896040516020016118669493929190614aa4565b60405160208183030381529060405280519060200120612b73565b858585612b8d565b905061189481612bb8565b86146118d5576040517f08c379a00000000000000000000000000000000000000000000000000000000081526004016118cc90614c9e565b60405180910390fd5b6118df8188612638565b50505050505050565b601060009054906101000a900473ffffffffffffffffffffffffffffffffffffffff1681565b6119166127a5565b6119208282612c16565b5050565b83421115611967576040517f08c379a000000000000000000000000000000000000000000000000000000000815260040161195e90614d1e565b60405180910390fd5b60007f6e71edae12b1b97f4d1f60370fef10105fa2faae0126114a169c64845d6126c98888886119968c612bb8565b896040516020016119ac96959493929190614a43565b60405160208183030381529060405280519060200120905060006119cf82612b73565b905060006119df82878787612b8d565b90508973ffffffffffffffffffffffffffffffffffffffff168173ffffffffffffffffffffffffffffffffffffffff1614611a4f576040517f08c379a0000000000000000000000000000000000000000000000000000000008152600401611a4690614d9e565b60405180910390fd5b611a5a8a8a8a611efe565b50505050505050505050565b6000600160008473ffffffffffffffffffffffffffffffffffffffff1673ffffffffffffffffffffffffffffffffffffffff16815260200190815260200160002060008373ffffffffffffffffffffffffffffffffffffffff1673ffffffffffffffffffffffffffffffffffffffff16815260200190815260200160002054905092915050565b60135481565b611afb6128e9565b6000611b246064611b16600a8561293990919063ffffffff16565b61294f90919063ffffffff16565b90506000611b51601454611b43600f548561293990919063ffffffff16565b61294f90919063ffffffff16565b90506000611b7e601454611b70600d548661293990919063ffffffff16565b61294f90919063ffffffff16565b9050611c23601060009054906101000a900473ffffffffffffffffffffffffffffffffffffffff16611bdb601554600a611bb8919061510a565b611bcd600c548761293990919063ffffffff16565b61294f90919063ffffffff16565b601660009054906101000a900473ffffffffffffffffffffffffffffffffffffffff1673ffffffffffffffffffffffffffffffffffffffff16612c249092919063ffffffff16565b6000611c6c601554600a611c37919061510a565b611c5e611c4d878961296590919063ffffffff16565b600c5461293990919063ffffffff16565b61294f90919063ffffffff16565b9050611cb7611ca6601554600a611c83919061510a565b611c98600c548661293990919063ffffffff16565b61294f90919063ffffffff16565b600e54612a0490919063ffffffff16565b600e81905550611cfc611cf5601554600a611cd2919061510a565b611ce7600c548661293990919063ffffffff16565b61294f90919063ffffffff16565b8684612caa565b611d063386612da3565b611d533382601660009054906101000a900473ffffffffffffffffffffffffffffffffffffffff1673ffffffffffffffffffffffffffffffffffffffff16612c249092919063ffffffff16565b50505050611d5f612b5b565b50565b611d6a613f84565b600a60008473ffffffffffffffffffffffffffffffffffffffff1673ffffffffffffffffffffffffffffffffffffffff1681526020019081526020016000208263ffffffff1681548110611dc157611dc06154c0565b5b906000526020600020016040518060400160405290816000820160009054906101000a900463ffffffff1663ffffffff1663ffffffff1681526020016000820160049054906101000a90047bffffffffffffffffffffffffffffffffffffffffffffffffffffffff167bffffffffffffffffffffffffffffffffffffffffffffffffffffffff167bffffffffffffffffffffffffffffffffffffffffffffffffffffffff1681525050905092915050565b611e7a6127a5565b600073ffffffffffffffffffffffffffffffffffffffff168173ffffffffffffffffffffffffffffffffffffffff161415611eea576040517f08c379a0000000000000000000000000000000000000000000000000000000008152600401611ee190614cbe565b60405180910390fd5b611ef381612823565b50565b600033905090565b600073ffffffffffffffffffffffffffffffffffffffff168373ffffffffffffffffffffffffffffffffffffffff161415611f6e576040517f08c379a0000000000000000000000000000000000000000000000000000000008152600401611f6590614e7e565b60405180910390fd5b600073ffffffffffffffffffffffffffffffffffffffff168273ffffffffffffffffffffffffffffffffffffffff161415611fde576040517f08c379a0000000000000000000000000000000000000000000000000000000008152600401611fd590614cde565b60405180910390fd5b80600160008573ffffffffffffffffffffffffffffffffffffffff1673ffffffffffffffffffffffffffffffffffffffff16815260200190815260200160002060008473ffffffffffffffffffffffffffffffffffffffff1673ffffffffffffffffffffffffffffffffffffffff168152602001908152602001600020819055508173ffffffffffffffffffffffffffffffffffffffff168373ffffffffffffffffffffffffffffffffffffffff167f8c5be1e5ebec7d5bd14f71427d1e84f3dd0314c0f7b2291e5b200ac8c7c3b925836040516120bc9190614f79565b60405180910390a3505050565b60006120d58484611a66565b90507fffffffffffffffffffffffffffffffffffffffffffffffffffffffffffffffff811461214f5781811015612141576040517f08c379a000000000000000000000000000000000000000000000000000000000815260040161213890614cfe565b60405180910390fd5b61214e8484848403611efe565b5b50505050565b600073ffffffffffffffffffffffffffffffffffffffff168373ffffffffffffffffffffffffffffffffffffffff1614156121c5576040517f08c379a00000000000000000000000000000000000000000000000000000000081526004016121bc90614e3e565b60405180910390fd5b600073ffffffffffffffffffffffffffffffffffffffff168273ffffffffffffffffffffffffffffffffffffffff161415612235576040517f08c379a000000000000000000000000000000000000000000000000000000000815260040161222c90614bde565b60405180910390fd5b612240838383612e46565b60008060008573ffffffffffffffffffffffffffffffffffffffff1673ffffffffffffffffffffffffffffffffffffffff168152602001908152602001600020549050818110156122c6576040517f08c379a00000000000000000000000000000000000000000000000000000000081526004016122bd90614d3e565b60405180910390fd5b8181036000808673ffffffffffffffffffffffffffffffffffffffff1673ffffffffffffffffffffffffffffffffffffffff16815260200190815260200160002081905550816000808573ffffffffffffffffffffffffffffffffffffffff1673ffffffffffffffffffffffffffffffffffffffff168152602001908152602001600020600082825401925050819055508273ffffffffffffffffffffffffffffffffffffffff168473ffffffffffffffffffffffffffffffffffffffff167fddf252ad1be2c89b69c2b068fc378daa952ba7f163c4a11628f55a4df523b3ef846040516123b49190614f79565b60405180910390a36123c7848484612e4b565b50505050565b60007f000000000000000000000000000000000000000000000000000000000000000073ffffffffffffffffffffffffffffffffffffffff163073ffffffffffffffffffffffffffffffffffffffff1614801561244957507f000000000000000000000000000000000000000000000000000000000000000046145b15612476577f000000000000000000000000000000000000000000000000000000000000000090506124e4565b6124e17f00000000000000000000000000000000000000000000000000000000000000007f00000000000000000000000000000000000000000000000000000000000000007f0000000000000000000000000000000000000000000000000000000000000000612e5b565b90505b90565b60008083805490509050600080829050600583111561255d57600061250b84612e95565b846125169190615282565b9050856125238883612f8f565b60000160009054906101000a900463ffffffff1663ffffffff16111561254b5780915061255b565b6001816125589190615030565b92505b505b5b808210156125bd5760006125728383612fa4565b90508561257f8883612f8f565b60000160009054906101000a900463ffffffff1663ffffffff1611156125a7578091506125b7565b6001816125b49190615030565b92505b5061255e565b6000811461260c576125db866001836125d69190615282565b612f8f565b60000160049054906101000a90047bffffffffffffffffffffffffffffffffffffffffffffffffffffffff1661260f565b60005b7bffffffffffffffffffffffffffffffffffffffffffffffffffffffff16935050505092915050565b600061264383610cd4565b9050600061265084610da5565b905082600960008673ffffffffffffffffffffffffffffffffffffffff1673ffffffffffffffffffffffffffffffffffffffff16815260200190815260200160002060006101000a81548173ffffffffffffffffffffffffffffffffffffffff021916908373ffffffffffffffffffffffffffffffffffffffff1602179055508273ffffffffffffffffffffffffffffffffffffffff168273ffffffffffffffffffffffffffffffffffffffff168573ffffffffffffffffffffffffffffffffffffffff167f3134e8a2e6d97e929a7e54011ea5485d7d196dd5f0ba4d4ef95803e8e3fc257f60405160405180910390a461274c828483612fca565b50505050565b600063ffffffff801682111561279d576040517f08c379a000000000000000000000000000000000000000000000000000000000815260040161279490614e5e565b60405180910390fd5b819050919050565b6127ad611ef6565b73ffffffffffffffffffffffffffffffffffffffff166127cb6112f6565b73ffffffffffffffffffffffffffffffffffffffff1614612821576040517f08c379a000000000000000000000000000000000000000000000000000000000815260040161281890614dde565b60405180910390fd5b565b6000600560009054906101000a900473ffffffffffffffffffffffffffffffffffffffff16905081600560006101000a81548173ffffffffffffffffffffffffffffffffffffffff021916908373ffffffffffffffffffffffffffffffffffffffff1602179055508173ffffffffffffffffffffffffffffffffffffffff168173ffffffffffffffffffffffffffffffffffffffff167f8be0079c531659141344cd1fd0a4f28419497f9722a3daafe3b4186f6b6457e060405160405180910390a35050565b6002600654141561292f576040517f08c379a000000000000000000000000000000000000000000000000000000000815260040161292690614ede565b60405180910390fd5b6002600681905550565b600081836129479190615228565b905092915050565b6000818361295d9190615086565b905092915050565b600081836129739190615282565b905092915050565b6129fe846323b872dd60e01b85858560405160240161299c939291906149ad565b604051602081830303815290604052907bffffffffffffffffffffffffffffffffffffffffffffffffffffffff19166020820180517bffffffffffffffffffffffffffffffffffffffffffffffffffffffff83818316178352505050506131c3565b50505050565b60008183612a129190615030565b905092915050565b6000612a2f828461296590919063ffffffff16565b90506000612a62600c54612a54670de0b6b3a76400008561293990919063ffffffff16565b61294f90919063ffffffff16565b90506000612af63073ffffffffffffffffffffffffffffffffffffffff166318160ddd6040518163ffffffff1660e01b815260040160206040518083038186803b158015612aaf57600080fd5b505afa158015612ac3573d6000803e3d6000fd5b505050506040513d601f19601f82011682018060405250810190612ae79190614386565b83612a0490919063ffffffff16565b90506000612b2782612b19670de0b6b3a76400008a61293990919063ffffffff16565b61294f90919063ffffffff16565b9050612b3e81600c54612a0490919063ffffffff16565b600c8190555050505050505050565b612b578282612c16565b5050565b6001600681905550565b600081600001549050919050565b6000612b86612b806123cd565b8361328a565b9050919050565b6000806000612b9e878787876132bd565b91509150612bab816133a0565b8192505050949350505050565b600080600760008473ffffffffffffffffffffffffffffffffffffffff1673ffffffffffffffffffffffffffffffffffffffff1681526020019081526020016000209050612c0581612b65565b9150612c108161350e565b50919050565b612c208282613524565b5050565b612ca58363a9059cbb60e01b8484604051602401612c439291906149e4565b604051602081830303815290604052907bffffffffffffffffffffffffffffffffffffffffffffffffffffffff19166020820180517bffffffffffffffffffffffffffffffffffffffffffffffffffffffff83818316178352505050506131c3565b505050565b6000612d4e612cc2838561296590919063ffffffff16565b3073ffffffffffffffffffffffffffffffffffffffff166318160ddd6040518163ffffffff1660e01b815260040160206040518083038186803b158015612d0857600080fd5b505afa158015612d1c573d6000803e3d6000fd5b505050506040513d601f19601f82011682018060405250810190612d409190614386565b61296590919063ffffffff16565b90506000612d7f82612d71670de0b6b3a76400008861293990919063ffffffff16565b61294f90919063ffffffff16565b9050612d9681600c54612a0490919063ffffffff16565b600c819055505050505050565b803073ffffffffffffffffffffffffffffffffffffffff166370a08231846040518263ffffffff1660e01b8152600401612ddd9190614992565b60206040518083038186803b158015612df557600080fd5b505afa158015612e09573d6000803e3d6000fd5b505050506040513d601f19601f82011682018060405250810190612e2d9190614386565b1015612e3857600080fd5b612e4282826135b1565b5050565b505050565b612e568383836135bf565b505050565b60008383834630604051602001612e76959493929190614ae9565b6040516020818303038152906040528051906020012090509392505050565b600080821415612ea85760009050612f8a565b60006001612eb5846135ea565b901c6001901b90506001818481612ecf57612ece615433565b5b048201901c90506001818481612ee857612ee7615433565b5b048201901c90506001818481612f0157612f00615433565b5b048201901c90506001818481612f1a57612f19615433565b5b048201901c90506001818481612f3357612f32615433565b5b048201901c90506001818481612f4c57612f4b615433565b5b048201901c90506001818481612f6557612f64615433565b5b048201901c9050612f8681828581612f8057612f7f615433565b5b046136cb565b9150505b919050565b60008260005281602060002001905092915050565b60006002828418612fb59190615086565b828416612fc29190615030565b905092915050565b8173ffffffffffffffffffffffffffffffffffffffff168373ffffffffffffffffffffffffffffffffffffffff16141580156130065750600081115b156131be57600073ffffffffffffffffffffffffffffffffffffffff168373ffffffffffffffffffffffffffffffffffffffff16146130e45760008061308d600a60008773ffffffffffffffffffffffffffffffffffffffff1673ffffffffffffffffffffffffffffffffffffffff1681526020019081526020016000206136e4856136fa565b915091508473ffffffffffffffffffffffffffffffffffffffff167fdec2bacdd2f05b59de34da9b523dff8be42e5e38e818c82fdb0bae774387a72483836040516130d9929190614f94565b60405180910390a250505b600073ffffffffffffffffffffffffffffffffffffffff168273ffffffffffffffffffffffffffffffffffffffff16146131bd57600080613166600a60008673ffffffffffffffffffffffffffffffffffffffff1673ffffffffffffffffffffffffffffffffffffffff1681526020019081526020016000206139c9856136fa565b915091508373ffffffffffffffffffffffffffffffffffffffff167fdec2bacdd2f05b59de34da9b523dff8be42e5e38e818c82fdb0bae774387a72483836040516131b2929190614f94565b60405180910390a250505b5b505050565b6000613225826040518060400160405280602081526020017f5361666545524332303a206c6f772d6c6576656c2063616c6c206661696c65648152508573ffffffffffffffffffffffffffffffffffffffff166139df9092919063ffffffff16565b9050600081511115613285578080602001905181019061324591906142d9565b613284576040517f08c379a000000000000000000000000000000000000000000000000000000000815260040161327b90614ebe565b60405180910390fd5b5b505050565b6000828260405160200161329f92919061495b565b60405160208183030381529060405280519060200120905092915050565b6000807f7fffffffffffffffffffffffffffffff5d576e7357a4501ddfe92f46681b20a08360001c11156132f8576000600391509150613397565b60006001878787876040516000815260200160405260405161331d9493929190614b3c565b6020604051602081039080840390855afa15801561333f573d6000803e3d6000fd5b505050602060405103519050600073ffffffffffffffffffffffffffffffffffffffff168173ffffffffffffffffffffffffffffffffffffffff16141561338e57600060019250925050613397565b80600092509250505b94509492505050565b600060048111156133b4576133b3615462565b5b8160048111156133c7576133c6615462565b5b14156133d25761350b565b600160048111156133e6576133e5615462565b5b8160048111156133f9576133f8615462565b5b141561343a576040517f08c379a000000000000000000000000000000000000000000000000000000000815260040161343190614bbe565b60405180910390fd5b6002600481111561344e5761344d615462565b5b81600481111561346157613460615462565b5b14156134a2576040517f08c379a000000000000000000000000000000000000000000000000000000000815260040161349990614c7e565b60405180910390fd5b600360048111156134b6576134b5615462565b5b8160048111156134c9576134c8615462565b5b141561350a576040517f08c379a000000000000000000000000000000000000000000000000000000000815260040161350190614d5e565b60405180910390fd5b5b50565b6001816000016000828254019250508190555050565b61352e82826139f7565b613536613b4e565b7bffffffffffffffffffffffffffffffffffffffffffffffffffffffff1661355c610ae8565b111561359d576040517f08c379a000000000000000000000000000000000000000000000000000000000815260040161359490614dbe565b60405180910390fd5b6135ab600b6139c9836136fa565b50505050565b6135bb8282613b72565b5050565b6135ca838383613b90565b6135e56135d684610cd4565b6135df84610cd4565b83612fca565b505050565b600080600090506000608084901c111561360c57608083901c92506080810190505b6000604084901c111561362757604083901c92506040810190505b6000602084901c111561364257602083901c92506020810190505b6000601084901c111561365d57601083901c92506010810190505b6000600884901c111561367857600883901c92506008810190505b6000600484901c111561369357600483901c92506004810190505b6000600284901c11156136ae57600283901c92506002810190505b6000600184901c11156136c2576001810190505b80915050919050565b60008183106136da57816136dc565b825b905092915050565b600081836136f29190615282565b905092915050565b60008060008580549050905060008082146137c957613725876001846137209190615282565b612f8f565b6040518060400160405290816000820160009054906101000a900463ffffffff1663ffffffff1663ffffffff1681526020016000820160049054906101000a90047bffffffffffffffffffffffffffffffffffffffffffffffffffffffff167bffffffffffffffffffffffffffffffffffffffffffffffffffffffff167bffffffffffffffffffffffffffffffffffffffffffffffffffffffff1681525050613805565b6040518060400160405280600063ffffffff16815260200160007bffffffffffffffffffffffffffffffffffffffffffffffffffffffff168152505b905080602001517bffffffffffffffffffffffffffffffffffffffffffffffffffffffff16935061383a84868863ffffffff16565b9250600082118015613855575043816000015163ffffffff16145b156138cf5761386383613b95565b613879886001856138749190615282565b612f8f565b60000160046101000a8154817bffffffffffffffffffffffffffffffffffffffffffffffffffffffff02191690837bffffffffffffffffffffffffffffffffffffffffffffffffffffffff1602179055506139bf565b8660405180604001604052806138e443612752565b63ffffffff1681526020016138f886613b95565b7bffffffffffffffffffffffffffffffffffffffffffffffffffffffff168152509080600181540180825580915050600190039060005260206000200160009091909190915060008201518160000160006101000a81548163ffffffff021916908363ffffffff16021790555060208201518160000160046101000a8154817bffffffffffffffffffffffffffffffffffffffffffffffffffffffff02191690837bffffffffffffffffffffffffffffffffffffffffffffffffffffffff16021790555050505b5050935093915050565b600081836139d79190615030565b905092915050565b60606139ee8484600085613c00565b90509392505050565b600073ffffffffffffffffffffffffffffffffffffffff168273ffffffffffffffffffffffffffffffffffffffff161415613a67576040517f08c379a0000000000000000000000000000000000000000000000000000000008152600401613a5e90614f3e565b60405180910390fd5b613a7360008383612e46565b8060026000828254613a859190615030565b92505081905550806000808473ffffffffffffffffffffffffffffffffffffffff1673ffffffffffffffffffffffffffffffffffffffff168152602001908152602001600020600082825401925050819055508173ffffffffffffffffffffffffffffffffffffffff16600073ffffffffffffffffffffffffffffffffffffffff167fddf252ad1be2c89b69c2b068fc378daa952ba7f163c4a11628f55a4df523b3ef83604051613b369190614f79565b60405180910390a3613b4a60008383612e4b565b5050565b60007bffffffffffffffffffffffffffffffffffffffffffffffffffffffff905090565b613b7c8282613ccd565b613b8a600b6136e4836136fa565b50505050565b505050565b60007bffffffffffffffffffffffffffffffffffffffffffffffffffffffff8016821115613bf8576040517f08c379a0000000000000000000000000000000000000000000000000000000008152600401613bef90614dfe565b60405180910390fd5b819050919050565b606082471015613c45576040517f08c379a0000000000000000000000000000000000000000000000000000000008152600401613c3c90614d7e565b60405180910390fd5b6000808673ffffffffffffffffffffffffffffffffffffffff168587604051613c6e9190614944565b60006040518083038185875af1925050503d8060008114613cab576040519150601f19603f3d011682016040523d82523d6000602084013e613cb0565b606091505b5091509150613cc187838387613e9b565b92505050949350505050565b600073ffffffffffffffffffffffffffffffffffffffff168273ffffffffffffffffffffffffffffffffffffffff161415613d3d576040517f08c379a0000000000000000000000000000000000000000000000000000000008152600401613d3490614e1e565b60405180910390fd5b613d4982600083612e46565b60008060008473ffffffffffffffffffffffffffffffffffffffff1673ffffffffffffffffffffffffffffffffffffffff16815260200190815260200160002054905081811015613dcf576040517f08c379a0000000000000000000000000000000000000000000000000000000008152600401613dc690614c5e565b60405180910390fd5b8181036000808573ffffffffffffffffffffffffffffffffffffffff1673ffffffffffffffffffffffffffffffffffffffff1681526020019081526020016000208190555081600260008282540392505081905550600073ffffffffffffffffffffffffffffffffffffffff168373ffffffffffffffffffffffffffffffffffffffff167fddf252ad1be2c89b69c2b068fc378daa952ba7f163c4a11628f55a4df523b3ef84604051613e829190614f79565b60405180910390a3613e9683600084612e4b565b505050565b60608315613efe57600083511415613ef657613eb685613f11565b613ef5576040517f08c379a0000000000000000000000000000000000000000000000000000000008152600401613eec90614e9e565b60405180910390fd5b5b829050613f09565b613f088383613f34565b5b949350505050565b6000808273ffffffffffffffffffffffffffffffffffffffff163b119050919050565b600082511115613f475781518083602001fd5b806040517f08c379a0000000000000000000000000000000000000000000000000000000008152600401613f7b9190614b9c565b60405180910390fd5b6040518060400160405280600063ffffffff16815260200160007bffffffffffffffffffffffffffffffffffffffffffffffffffffffff1681525090565b600081359050613fd181615c40565b92915050565b600081519050613fe681615c57565b92915050565b600081359050613ffb81615c6e565b92915050565b60008135905061401081615c85565b92915050565b60008135905061402581615c9c565b92915050565b60008151905061403a81615c9c565b92915050565b60008135905061404f81615cb3565b92915050565b60008135905061406481615cca565b92915050565b6000602082840312156140805761407f6154ef565b5b600061408e84828501613fc2565b91505092915050565b600080604083850312156140ae576140ad6154ef565b5b60006140bc85828601613fc2565b92505060206140cd85828601613fc2565b9150509250929050565b6000806000606084860312156140f0576140ef6154ef565b5b60006140fe86828701613fc2565b935050602061410f86828701613fc2565b925050604061412086828701614016565b9150509250925092565b600080600080600080600060e0888a031215614149576141486154ef565b5b60006141578a828b01613fc2565b97505060206141688a828b01613fc2565b96505060406141798a828b01614016565b955050606061418a8a828b01614016565b945050608061419b8a828b01614055565b93505060a06141ac8a828b01613fec565b92505060c06141bd8a828b01613fec565b91505092959891949750929550565b600080604083850312156141e3576141e26154ef565b5b60006141f185828601613fc2565b925050602061420285828601614016565b9150509250929050565b60008060008060008060c08789031215614229576142286154ef565b5b600061423789828a01613fc2565b965050602061424889828a01614016565b955050604061425989828a01614016565b945050606061426a89828a01614055565b935050608061427b89828a01613fec565b92505060a061428c89828a01613fec565b9150509295509295509295565b600080604083850312156142b0576142af6154ef565b5b60006142be85828601613fc2565b92505060206142cf85828601614040565b9150509250929050565b6000602082840312156142ef576142ee6154ef565b5b60006142fd84828501613fd7565b91505092915050565b60008060006060848603121561431f5761431e6154ef565b5b600061432d86828701614001565b935050602061433e86828701613fc2565b925050604061434f86828701614016565b9150509250925092565b60006020828403121561436f5761436e6154ef565b5b600061437d84828501614016565b91505092915050565b60006020828403121561439c5761439b6154ef565b5b60006143aa8482850161402b565b91505092915050565b600080604083850312156143ca576143c96154ef565b5b60006143d885828601614016565b92505060206143e985828601613fc2565b9150509250929050565b6143fc816152b6565b82525050565b61440b816152c8565b82525050565b61441a816152d4565b82525050565b61443161442c826152d4565b6153fa565b82525050565b600061444282614ff3565b61444c8185615009565b935061445c818560208601615395565b80840191505092915050565b6144718161535f565b82525050565b600061448282614ffe565b61448c8185615014565b935061449c818560208601615395565b6144a5816154f4565b840191505092915050565b60006144bd601883615014565b91506144c882615512565b602082019050919050565b60006144e0602383615014565b91506144eb8261553b565b604082019050919050565b6000614503601f83615014565b915061450e8261558a565b602082019050919050565b6000614526601383615014565b9150614531826155b3565b602082019050919050565b6000614549601d83615014565b9150614554826155dc565b602082019050919050565b600061456c602283615014565b915061457782615605565b604082019050919050565b600061458f601f83615014565b915061459a82615654565b602082019050919050565b60006145b2601983615014565b91506145bd8261567d565b602082019050919050565b60006145d5602683615014565b91506145e0826156a6565b604082019050919050565b60006145f8602283615014565b9150614603826156f5565b604082019050919050565b600061461b600283615025565b915061462682615744565b600282019050919050565b600061463e601d83615014565b91506146498261576d565b602082019050919050565b6000614661601d83615014565b915061466c82615796565b602082019050919050565b6000614684602683615014565b915061468f826157bf565b604082019050919050565b60006146a7602283615014565b91506146b28261580e565b604082019050919050565b60006146ca602683615014565b91506146d58261585d565b604082019050919050565b60006146ed601e83615014565b91506146f8826158ac565b602082019050919050565b6000614710603083615014565b915061471b826158d5565b604082019050919050565b6000614733602083615014565b915061473e82615924565b602082019050919050565b6000614756602783615014565b91506147618261594d565b604082019050919050565b6000614779602183615014565b91506147848261599c565b604082019050919050565b600061479c602583615014565b91506147a7826159eb565b604082019050919050565b60006147bf602683615014565b91506147ca82615a3a565b604082019050919050565b60006147e2602483615014565b91506147ed82615a89565b604082019050919050565b6000614805601d83615014565b915061481082615ad8565b602082019050919050565b6000614828602a83615014565b915061483382615b01565b604082019050919050565b600061484b601f83615014565b915061485682615b50565b602082019050919050565b600061486e602583615014565b915061487982615b79565b604082019050919050565b6000614891603b83615014565b915061489c82615bc8565b604082019050919050565b60006148b4601f83615014565b91506148bf82615c17565b602082019050919050565b6040820160008201516148e06000850182614917565b5060208201516148f360208501826148f9565b50505050565b61490281615310565b82525050565b61491181615338565b82525050565b61492081615342565b82525050565b61492f81615342565b82525050565b61493e81615352565b82525050565b60006149508284614437565b915081905092915050565b60006149668261460e565b91506149728285614420565b6020820191506149828284614420565b6020820191508190509392505050565b60006020820190506149a760008301846143f3565b92915050565b60006060820190506149c260008301866143f3565b6149cf60208301856143f3565b6149dc6040830184614908565b949350505050565b60006040820190506149f960008301856143f3565b614a066020830184614908565b9392505050565b6000602082019050614a226000830184614402565b92915050565b6000602082019050614a3d6000830184614411565b92915050565b600060c082019050614a586000830189614411565b614a6560208301886143f3565b614a7260408301876143f3565b614a7f6060830186614908565b614a8c6080830185614908565b614a9960a0830184614908565b979650505050505050565b6000608082019050614ab96000830187614411565b614ac660208301866143f3565b614ad36040830185614908565b614ae06060830184614908565b95945050505050565b600060a082019050614afe6000830188614411565b614b0b6020830187614411565b614b186040830186614411565b614b256060830185614908565b614b3260808301846143f3565b9695505050505050565b6000608082019050614b516000830187614411565b614b5e6020830186614935565b614b6b6040830185614411565b614b786060830184614411565b95945050505050565b6000602082019050614b966000830184614468565b92915050565b60006020820190508181036000830152614bb68184614477565b905092915050565b60006020820190508181036000830152614bd7816144b0565b9050919050565b60006020820190508181036000830152614bf7816144d3565b9050919050565b60006020820190508181036000830152614c17816144f6565b9050919050565b60006020820190508181036000830152614c3781614519565b9050919050565b60006020820190508181036000830152614c578161453c565b9050919050565b60006020820190508181036000830152614c778161455f565b9050919050565b60006020820190508181036000830152614c9781614582565b9050919050565b60006020820190508181036000830152614cb7816145a5565b9050919050565b60006020820190508181036000830152614cd7816145c8565b9050919050565b60006020820190508181036000830152614cf7816145eb565b9050919050565b60006020820190508181036000830152614d1781614631565b9050919050565b60006020820190508181036000830152614d3781614654565b9050919050565b60006020820190508181036000830152614d5781614677565b9050919050565b60006020820190508181036000830152614d778161469a565b9050919050565b60006020820190508181036000830152614d97816146bd565b9050919050565b60006020820190508181036000830152614db7816146e0565b9050919050565b60006020820190508181036000830152614dd781614703565b9050919050565b60006020820190508181036000830152614df781614726565b9050919050565b60006020820190508181036000830152614e1781614749565b9050919050565b60006020820190508181036000830152614e378161476c565b9050919050565b60006020820190508181036000830152614e578161478f565b9050919050565b60006020820190508181036000830152614e77816147b2565b9050919050565b60006020820190508181036000830152614e97816147d5565b9050919050565b60006020820190508181036000830152614eb7816147f8565b9050919050565b60006020820190508181036000830152614ed78161481b565b9050919050565b60006020820190508181036000830152614ef78161483e565b9050919050565b60006020820190508181036000830152614f1781614861565b9050919050565b60006020820190508181036000830152614f3781614884565b9050919050565b60006020820190508181036000830152614f57816148a7565b9050919050565b6000604082019050614f7360008301846148ca565b92915050565b6000602082019050614f8e6000830184614908565b92915050565b6000604082019050614fa96000830185614908565b614fb66020830184614908565b9392505050565b6000602082019050614fd26000830184614926565b92915050565b6000602082019050614fed6000830184614935565b92915050565b600081519050919050565b600081519050919050565b600081905092915050565b600082825260208201905092915050565b600081905092915050565b600061503b82615338565b915061504683615338565b9250827fffffffffffffffffffffffffffffffffffffffffffffffffffffffffffffffff0382111561507b5761507a615404565b5b828201905092915050565b600061509182615338565b915061509c83615338565b9250826150ac576150ab615433565b5b828204905092915050565b6000808291508390505b6001851115615101578086048111156150dd576150dc615404565b5b60018516156150ec5780820291505b80810290506150fa85615505565b94506150c1565b94509492505050565b600061511582615338565b915061512083615338565b925061514d7fffffffffffffffffffffffffffffffffffffffffffffffffffffffffffffffff8484615155565b905092915050565b6000826151655760019050615221565b816151735760009050615221565b81600181146151895760028114615193576151c2565b6001915050615221565b60ff8411156151a5576151a4615404565b5b8360020a9150848211156151bc576151bb615404565b5b50615221565b5060208310610133831016604e8410600b84101617156151f75782820a9050838111156151f2576151f1615404565b5b615221565b61520484848460016150b7565b9250905081840481111561521b5761521a615404565b5b81810290505b9392505050565b600061523382615338565b915061523e83615338565b9250817fffffffffffffffffffffffffffffffffffffffffffffffffffffffffffffffff048311821515161561527757615276615404565b5b828202905092915050565b600061528d82615338565b915061529883615338565b9250828210156152ab576152aa615404565b5b828203905092915050565b60006152c1826152f0565b9050919050565b60008115159050919050565b6000819050919050565b60006152e9826152b6565b9050919050565b600073ffffffffffffffffffffffffffffffffffffffff82169050919050565b60007bffffffffffffffffffffffffffffffffffffffffffffffffffffffff82169050919050565b6000819050919050565b600063ffffffff82169050919050565b600060ff82169050919050565b600061536a82615371565b9050919050565b600061537c82615383565b9050919050565b600061538e826152f0565b9050919050565b60005b838110156153b3578082015181840152602081019050615398565b838111156153c2576000848401525b50505050565b600060028204905060018216806153e057607f821691505b602082108114156153f4576153f3615491565b5b50919050565b6000819050919050565b7f4e487b7100000000000000000000000000000000000000000000000000000000600052601160045260246000fd5b7f4e487b7100000000000000000000000000000000000000000000000000000000600052601260045260246000fd5b7f4e487b7100000000000000000000000000000000000000000000000000000000600052602160045260246000fd5b7f4e487b7100000000000000000000000000000000000000000000000000000000600052602260045260246000fd5b7f4e487b7100000000000000000000000000000000000000000000000000000000600052603260045260246000fd5b600080fd5b6000601f19601f8301169050919050565b60008160011c9050919050565b7f45434453413a20696e76616c6964207369676e61747572650000000000000000600082015250565b7f45524332303a207472616e7366657220746f20746865207a65726f206164647260008201527f6573730000000000000000000000000000000000000000000000000000000000602082015250565b7f4552433230566f7465733a20626c6f636b206e6f7420796574206d696e656400600082015250565b7f496e73756666696369656e742046756e64732e00000000000000000000000000600082015250565b7f4552433230566f7465733a207369676e61747572652065787069726564000000600082015250565b7f45524332303a206275726e20616d6f756e7420657863656564732062616c616e60008201527f6365000000000000000000000000000000000000000000000000000000000000602082015250565b7f45434453413a20696e76616c6964207369676e6174757265206c656e67746800600082015250565b7f4552433230566f7465733a20696e76616c6964206e6f6e636500000000000000600082015250565b7f4f776e61626c653a206e6577206f776e657220697320746865207a65726f206160008201527f6464726573730000000000000000000000000000000000000000000000000000602082015250565b7f45524332303a20617070726f766520746f20746865207a65726f20616464726560008201527f7373000000000000000000000000000000000000000000000000000000000000602082015250565b7f1901000000000000000000000000000000000000000000000000000000000000600082015250565b7f45524332303a20696e73756666696369656e7420616c6c6f77616e6365000000600082015250565b7f45524332305065726d69743a206578706972656420646561646c696e65000000600082015250565b7f45524332303a207472616e7366657220616d6f756e742065786365656473206260008201527f616c616e63650000000000000000000000000000000000000000000000000000602082015250565b7f45434453413a20696e76616c6964207369676e6174757265202773272076616c60008201527f7565000000000000000000000000000000000000000000000000000000000000602082015250565b7f416464726573733a20696e73756666696369656e742062616c616e636520666f60008201527f722063616c6c0000000000000000000000000000000000000000000000000000602082015250565b7f45524332305065726d69743a20696e76616c6964207369676e61747572650000600082015250565b7f4552433230566f7465733a20746f74616c20737570706c79207269736b73206f60008201527f766572666c6f77696e6720766f74657300000000000000000000000000000000602082015250565b7f4f776e61626c653a2063616c6c6572206973206e6f7420746865206f776e6572600082015250565b7f53616665436173743a2076616c756520646f65736e27742066697420696e203260008201527f3234206269747300000000000000000000000000000000000000000000000000602082015250565b7f45524332303a206275726e2066726f6d20746865207a65726f2061646472657360008201527f7300000000000000000000000000000000000000000000000000000000000000602082015250565b7f45524332303a207472616e736665722066726f6d20746865207a65726f20616460008201527f6472657373000000000000000000000000000000000000000000000000000000602082015250565b7f53616665436173743a2076616c756520646f65736e27742066697420696e203360008201527f3220626974730000000000000000000000000000000000000000000000000000602082015250565b7f45524332303a20617070726f76652066726f6d20746865207a65726f2061646460008201527f7265737300000000000000000000000000000000000000000000000000000000602082015250565b7f416464726573733a2063616c6c20746f206e6f6e2d636f6e7472616374000000600082015250565b7f5361666545524332303a204552433230206f7065726174696f6e20646964206e60008201527f6f74207375636365656400000000000000000000000000000000000000000000602082015250565b7f5265656e7472616e637947756172643a207265656e7472616e742063616c6c00600082015250565b7f45524332303a2064656372656173656420616c6c6f77616e63652062656c6f7760008201527f207a65726f000000000000000000000000000000000000000000000000000000602082015250565b7f596f7520617265206e6f7420617574686f72697a656420746f2077697468647260008201527f617720555344432066726f6d207468697320636f6e74726163742e0000000000602082015250565b7f45524332303a206d696e7420746f20746865207a65726f206164647265737300600082015250565b615c49816152b6565b8114615c5457600080fd5b50565b615c60816152c8565b8114615c6b57600080fd5b50565b615c77816152d4565b8114615c8257600080fd5b50565b615c8e816152de565b8114615c9957600080fd5b50565b615ca581615338565b8114615cb057600080fd5b50565b615cbc81615342565b8114615cc757600080fd5b50565b615cd381615352565b8114615cde57600080fd5b5056fea26469706673582212204b57d90c31cd4d265f6d017f2b4b628938ae57e16021921540f6209621a2398f64736f6c63430008070033",
  "immutableReferences": {
    "3088": [
      {
        "length": 32,
        "start": 9296
      }
    ],
    "3090": [
      {
        "length": 32,
        "start": 9255
      }
    ],
    "3092": [
      {
        "length": 32,
        "start": 9169
      }
    ],
    "3094": [
      {
        "length": 32,
        "start": 9372
      }
    ],
    "3096": [
      {
        "length": 32,
        "start": 9405
      }
    ],
    "3098": [
      {
        "length": 32,
        "start": 9339
      }
    ]
  },
  "source": "// SPDX-License-Identifier: MIT\npragma solidity 0.8.7;\n\nimport \"@openzeppelin/contracts/utils/Address.sol\";\nimport \"@openzeppelin/contracts/utils/math/SafeMath.sol\";\nimport \"@openzeppelin/contracts/security/ReentrancyGuard.sol\";\nimport \"@openzeppelin/contracts/utils/math/SafeCast.sol\";\nimport \"@openzeppelin/contracts/governance/utils/IVotes.sol\";\nimport \"@openzeppelin/contracts/utils/math/Math.sol\";\nimport \"@openzeppelin/contracts/utils/Counters.sol\";\nimport \"@openzeppelin/contracts/utils/Strings.sol\";\nimport \"@openzeppelin/contracts/utils/cryptography/ECDSA.sol\";\nimport \"@openzeppelin/contracts/utils/cryptography/draft-EIP712.sol\";\nimport \"@openzeppelin/contracts/utils/Context.sol\";\nimport \"@openzeppelin/contracts/access/Ownable.sol\";\nimport \"@openzeppelin/contracts/token/ERC20/extensions/draft-IERC20Permit.sol\";\nimport \"@openzeppelin/contracts/token/ERC20/IERC20.sol\";\nimport \"@openzeppelin/contracts/token/ERC20/utils/SafeERC20.sol\";\nimport \"@openzeppelin/contracts/token/ERC20/extensions/IERC20Metadata.sol\";\nimport \"@openzeppelin/contracts/token/ERC20/ERC20.sol\";\nimport \"@openzeppelin/contracts/token/ERC20/extensions/draft-ERC20Permit.sol\";\nimport \"@openzeppelin/contracts/token/ERC20/extensions/ERC20Votes.sol\";\n\ncontract Diamond is ERC20, Ownable, ReentrancyGuard, ERC20Permit, ERC20Votes {\n    using SafeERC20 for IERC20;\n    using SafeMath for uint256;\n    // IERC20(usdctoken).safeTransferFrom(_msgSender(), address(this), _amount);\n\n    uint public price = 1000000;\n    uint public poolPercent = 0; //set this back to 80 if value fails\n    uint public Earning = 0;\n    uint public treasuryPercent = 1; //set this back to 20 if value fails\n    address public treasuryAddress;\n    uint public buyPercent = 0; //set this back to 90 if value fails\n    uint public referralPercent = 0; //set this back to 2 if value fails\n    uint public incPercent = 101; //set this back to 110 if value fails\n    uint denominator = 100;\n    uint public stableDec = 6;\n    IERC20 public USDC;\n    uint public ad1 = 0;\n\n    constructor(address _usdc , address _treasuryAddress) public ERC20(\"Diamond\", \"DIA\") ERC20Permit(\"Diamond\") Ownable() ReentrancyGuard() {\n        USDC = IERC20(_usdc);\n        treasuryAddress = _treasuryAddress;\n    }\n        function _afterTokenTransfer(address from, address to, uint256 amount)\n        internal\n        override(ERC20, ERC20Votes)\n    {\n        super._afterTokenTransfer(from, to, amount);\n    }\n\n   function _mint(address to, uint256 amount)\n        internal\n        override(ERC20, ERC20Votes)\n    {\n        super._mint(to, amount);\n    }\n\n    function _burn(address account, uint256 amount)\n        internal\n        override(ERC20, ERC20Votes)\n    {\n        super._burn(account, amount);\n    }\n\n    function mintInternal(address to, uint256 amount) public onlyOwner {\n        _mint(to, amount);\n    }\n    \n    function mint(address _receiver , uint _amount) internal {\n        _mint(_receiver, _amount);\n    }\n\n    function decimals() public view virtual override returns (uint8){\n        return 6;\n    }\n\n    function burn(address _sender , uint _amount) internal {\n        require(this.balanceOf(_sender) >= _amount);\n        _burn(_sender, _amount);  \n    }\n    function changeTreasury(address _treasuryAddress) public onlyOwner() {\n        treasuryAddress = _treasuryAddress;\n    }\n\n    function buy(uint _amount, address _referer ) public nonReentrant(){\n        uint Tf = 0;\n        uint Tref = 0 ;\n        \n        uint incAmount =  _amount.mul(incPercent).div(denominator);\n\n        uint incPrice = incAmount.mul(price).div(10**stableDec);\n        uint accPrice = _amount.mul(price).div(10**stableDec);\n        uint diffPrice = incPrice.sub(accPrice);\n\n        uint treasuryRec = diffPrice.mul(treasuryPercent).div(denominator);\n        uint poolRec = diffPrice.mul(poolPercent).div(denominator);\n\n        if(_referer != address(0)){\n            uint refererAmt = treasuryRec.mul(referralPercent).div(denominator);\n           // USDC.transferFrom(msg.sender, address(this), accPrice );\n           IERC20(address(USDC)).safeTransferFrom(msg.sender, address(this), accPrice);\n\n           // USDC.transferFrom(msg.sender, address(this), poolRec );\n           IERC20(address(USDC)).safeTransferFrom(msg.sender, address(this), poolRec);\n            Tf = poolRec;\n            Earning = Earning.add(poolRec);\n\n            // USDC.transferFrom(msg.sender, _referer, refererAmt );\n            IERC20(address(USDC)).safeTransferFrom(msg.sender, _referer, refererAmt);\n\n            // USDC.transferFrom(msg.sender, treasuryAddress, treasuryRec.sub(refererAmt));\n            IERC20(address(USDC)).safeTransferFrom(msg.sender, treasuryAddress, treasuryRec.sub(refererAmt));\n\n            Tref = treasuryRec.sub(refererAmt) ;\n        } else {\n            // USDC.transferFrom(msg.sender, address(this), accPrice );\n            IERC20(address(USDC)).safeTransferFrom(msg.sender, address(this), accPrice);\n\n           // USDC.transferFrom(msg.sender, address(this), poolRec );\n           IERC20(address(USDC)).safeTransferFrom(msg.sender, address(this), poolRec);\n            Tf = poolRec;\n            Earning = Earning.add(poolRec);\n\n           // USDC.transferFrom(msg.sender, treasuryAddress, treasuryRec);\n           IERC20(address(USDC)).safeTransferFrom(msg.sender, treasuryAddress, treasuryRec);\n            Tref = treasuryRec ;\n        \n        }\n        updateBuyPrice(Tf,incPrice,Tref);\n        mint(msg.sender, _amount);\n        \n    }\n\n    function updateBuyPrice(uint Tf, uint Tpa, uint Tref) internal {\n      // price = price+  tPool/(this.totalSupply()+ (tBuy-tTreasury)/price)\n\n    //   uint subD1 = tBuy.sub(tTreasury);\n    //   uint subD2 = subD1.div(price);\n    //    uint den =  subD2.add(this.totalSupply());\n    //    ad1 = tPool.div(den);\n    //   price = price.add(ad1);\n\n    uint subD1 = Tpa.sub(Tref);\n      uint subD2 = subD1.mul(10**18).div(price);\n       uint den =  subD2.add(this.totalSupply());\n       uint ad1 = Tf.mul(10**18).div(den);\n      price = price.add(ad1);\n    }\n\n    function sell(uint _amount) public nonReentrant(){\n        uint tax = _amount.mul(10).div(100);\n        uint treasuryRec = tax.mul(treasuryPercent).div(denominator);\n        uint poolRec = tax.mul(poolPercent).div(denominator);\n\n      //  this.transferFrom(msg.sender, treasuryAddress, treasuryRec);\n\n        // USDC.transfer(treasuryAddress, treasuryRec.mul(price).div(10**stableDec));\n        IERC20(address(USDC)).safeTransfer(treasuryAddress, treasuryRec.mul(price).div(10**stableDec));\n\n        //this.transferFrom(msg.sender, address(this), poolRec);\n        // this.transfer(treasuryAddress, treasuryRec.mul(price).div(10**stableDec));\n        \n\n        uint sendAmt = price.mul(_amount.sub(tax)).div(10 ** stableDec);\n        Earning = Earning.add(poolRec.mul(price).div(10**stableDec));\n\n         updateSellPrice(poolRec.mul(price).div(10**stableDec),_amount,poolRec);\n        burn(msg.sender, _amount);\n        // USDC.transfer(msg.sender, sendAmt);\n        IERC20(address(USDC)).safeTransfer(msg.sender, sendAmt);\n      \n    }\n    \n    function USDCPoolBalance()  view external returns(uint){\n        return USDC.balanceOf(address(this));\n    }\n    \n    function updateSellPrice(uint Tf, uint Tss, uint Trep) internal {\n        uint den = this.totalSupply().sub(Tss.sub(Trep));\n        uint add1 = Tf.mul(10**18).div(den);\n        price = price.add(add1);\n    }\n\n    function transferERC20(IERC20 token, address to, uint256 amount) payable public {\n\trequire(msg.sender == owner(), \"You are not authorized to withdraw USDC from this contract.\");\n\tuint256 erc20balance = token.balanceOf(address(this));\n\trequire(amount <= erc20balance, \"Insufficient Funds.\");\n        token.transfer(to, amount);\n    }\n}\n",
  "sourcePath": "/Users/newuser/Stablecoin4/contracts/Diamond.sol",
  "compiler": {
    "name": "solc",
    "version": "0.8.7+commit.e28d00a7.Emscripten.clang"
  },
  "schemaVersion": "3.4.6",
  "updatedAt": "2022-12-14T21:35:16.625Z",
  "networkType": "ethereum",
  "devdoc": {
    "kind": "dev",
    "methods": {
      "DOMAIN_SEPARATOR()": {
        "details": "See {IERC20Permit-DOMAIN_SEPARATOR}."
      },
      "allowance(address,address)": {
        "details": "See {IERC20-allowance}."
      },
      "approve(address,uint256)": {
        "details": "See {IERC20-approve}. NOTE: If `amount` is the maximum `uint256`, the allowance is not updated on `transferFrom`. This is semantically equivalent to an infinite approval. Requirements: - `spender` cannot be the zero address."
      },
      "balanceOf(address)": {
        "details": "See {IERC20-balanceOf}."
      },
      "checkpoints(address,uint32)": {
        "details": "Get the `pos`-th checkpoint for `account`."
      },
      "decimals()": {
        "details": "Returns the number of decimals used to get its user representation. For example, if `decimals` equals `2`, a balance of `505` tokens should be displayed to a user as `5.05` (`505 / 10 ** 2`). Tokens usually opt for a value of 18, imitating the relationship between Ether and Wei. This is the value {ERC20} uses, unless this function is overridden; NOTE: This information is only used for _display_ purposes: it in no way affects any of the arithmetic of the contract, including {IERC20-balanceOf} and {IERC20-transfer}."
      },
      "decreaseAllowance(address,uint256)": {
        "details": "Atomically decreases the allowance granted to `spender` by the caller. This is an alternative to {approve} that can be used as a mitigation for problems described in {IERC20-approve}. Emits an {Approval} event indicating the updated allowance. Requirements: - `spender` cannot be the zero address. - `spender` must have allowance for the caller of at least `subtractedValue`."
      },
      "delegate(address)": {
        "details": "Delegate votes from the sender to `delegatee`."
      },
      "delegateBySig(address,uint256,uint256,uint8,bytes32,bytes32)": {
        "details": "Delegates votes from signer to `delegatee`"
      },
      "delegates(address)": {
        "details": "Get the address `account` is currently delegating to."
      },
      "getPastTotalSupply(uint256)": {
        "details": "Retrieve the `totalSupply` at the end of `blockNumber`. Note, this value is the sum of all balances. It is but NOT the sum of all the delegated votes! Requirements: - `blockNumber` must have been already mined"
      },
      "getPastVotes(address,uint256)": {
        "details": "Retrieve the number of votes for `account` at the end of `blockNumber`. Requirements: - `blockNumber` must have been already mined"
      },
      "getVotes(address)": {
        "details": "Gets the current votes balance for `account`"
      },
      "increaseAllowance(address,uint256)": {
        "details": "Atomically increases the allowance granted to `spender` by the caller. This is an alternative to {approve} that can be used as a mitigation for problems described in {IERC20-approve}. Emits an {Approval} event indicating the updated allowance. Requirements: - `spender` cannot be the zero address."
      },
      "name()": {
        "details": "Returns the name of the token."
      },
      "nonces(address)": {
        "details": "See {IERC20Permit-nonces}."
      },
      "numCheckpoints(address)": {
        "details": "Get number of checkpoints for `account`."
      },
      "owner()": {
        "details": "Returns the address of the current owner."
      },
      "permit(address,address,uint256,uint256,uint8,bytes32,bytes32)": {
        "details": "See {IERC20Permit-permit}."
      },
      "renounceOwnership()": {
        "details": "Leaves the contract without owner. It will not be possible to call `onlyOwner` functions anymore. Can only be called by the current owner. NOTE: Renouncing ownership will leave the contract without an owner, thereby removing any functionality that is only available to the owner."
      },
      "symbol()": {
        "details": "Returns the symbol of the token, usually a shorter version of the name."
      },
      "totalSupply()": {
        "details": "See {IERC20-totalSupply}."
      },
      "transfer(address,uint256)": {
        "details": "See {IERC20-transfer}. Requirements: - `to` cannot be the zero address. - the caller must have a balance of at least `amount`."
      },
      "transferFrom(address,address,uint256)": {
        "details": "See {IERC20-transferFrom}. Emits an {Approval} event indicating the updated allowance. This is not required by the EIP. See the note at the beginning of {ERC20}. NOTE: Does not update the allowance if the current allowance is the maximum `uint256`. Requirements: - `from` and `to` cannot be the zero address. - `from` must have a balance of at least `amount`. - the caller must have allowance for ``from``'s tokens of at least `amount`."
      },
      "transferOwnership(address)": {
        "details": "Transfers ownership of the contract to a new account (`newOwner`). Can only be called by the current owner."
      }
    },
    "version": 1
  },
  "userdoc": {
    "kind": "user",
    "methods": {},
    "version": 1
  }
}